{
  "abi": [
    {
      "type": "constructor",
      "inputs": [],
      "stateMutability": "nonpayable"
    },
    {
      "type": "function",
      "name": "admin",
      "inputs": [],
      "outputs": [
        {
          "name": "",
          "type": "address",
          "internalType": "address"
        }
      ],
      "stateMutability": "view"
    },
    {
      "type": "function",
      "name": "assetId",
      "inputs": [],
      "outputs": [
        {
          "name": "_value",
          "type": "uint256",
          "internalType": "uint256"
        }
      ],
      "stateMutability": "view"
    },
    {
      "type": "function",
      "name": "certificateId",
      "inputs": [],
      "outputs": [
        {
          "name": "_value",
          "type": "uint256",
          "internalType": "uint256"
        }
      ],
      "stateMutability": "view"
    },
    {
      "type": "function",
      "name": "fileHashDuplicationPrevent",
      "inputs": [
        {
          "name": "",
          "type": "bytes32",
          "internalType": "bytes32"
        }
      ],
      "outputs": [
        {
          "name": "",
          "type": "bool",
          "internalType": "bool"
        }
      ],
      "stateMutability": "view"
    },
    {
      "type": "function",
      "name": "issueCertificate",
      "inputs": [
        {
          "name": "_issuer",
          "type": "address",
          "internalType": "address"
        },
        {
          "name": "_student",
          "type": "address",
          "internalType": "address"
        },
        {
          "name": "_fileHash",
          "type": "bytes32",
          "internalType": "bytes32"
        }
      ],
      "outputs": [],
      "stateMutability": "nonpayable"
    },
    {
      "type": "function",
      "name": "issuerToStudent",
      "inputs": [
        {
          "name": "",
          "type": "address",
          "internalType": "address"
        },
        {
          "name": "",
          "type": "address",
          "internalType": "address"
        }
      ],
      "outputs": [
        {
          "name": "",
          "type": "bytes32",
          "internalType": "bytes32"
        }
      ],
      "stateMutability": "view"
    },
    {
      "type": "function",
      "name": "legalDocumentsId",
      "inputs": [],
      "outputs": [
        {
          "name": "_value",
          "type": "uint256",
          "internalType": "uint256"
        }
      ],
      "stateMutability": "view"
    },
    {
      "type": "function",
      "name": "mediaRecordId",
      "inputs": [],
      "outputs": [
        {
          "name": "_value",
          "type": "uint256",
          "internalType": "uint256"
        }
      ],
      "stateMutability": "view"
    },
    {
      "type": "function",
      "name": "records",
      "inputs": [
        {
          "name": "",
          "type": "bytes32",
          "internalType": "bytes32"
        }
      ],
      "outputs": [
        {
          "name": "id",
          "type": "uint256",
          "internalType": "uint256"
        },
        {
          "name": "role",
          "type": "uint8",
          "internalType": "enum AuthenticityVault.RoleCategory"
        },
        {
          "name": "fileHash",
          "type": "bytes32",
          "internalType": "bytes32"
        },
        {
          "name": "timestamp",
          "type": "uint256",
          "internalType": "uint256"
        },
        {
          "name": "isVerified",
          "type": "bool",
          "internalType": "bool"
        },
        {
          "name": "uploader",
          "type": "address",
          "internalType": "address"
        },
        {
          "name": "issuer",
          "type": "address",
          "internalType": "address"
        }
      ],
      "stateMutability": "view"
    },
    {
      "type": "function",
      "name": "registerAsTrustedIssuerOrLegalIdentity",
      "inputs": [
        {
          "name": "_role",
          "type": "uint8",
          "internalType": "enum AuthenticityVault.RoleCategory"
        },
        {
          "name": "_issuer",
          "type": "address",
          "internalType": "address"
        },
        {
          "name": "orgName",
          "type": "string",
          "internalType": "string"
        },
        {
          "name": "orgUrl",
          "type": "string",
          "internalType": "string"
        }
      ],
      "outputs": [],
      "stateMutability": "nonpayable"
    },
    {
      "type": "function",
      "name": "trustedIssuers",
      "inputs": [
        {
          "name": "",
          "type": "address",
          "internalType": "address"
        }
      ],
      "outputs": [
        {
          "name": "",
          "type": "bool",
          "internalType": "bool"
        }
      ],
      "stateMutability": "view"
    },
    {
      "type": "function",
      "name": "trustedLegalIdentity",
      "inputs": [
        {
          "name": "",
          "type": "address",
          "internalType": "address"
        }
      ],
      "outputs": [
        {
          "name": "",
          "type": "bool",
          "internalType": "bool"
        }
      ],
      "stateMutability": "view"
    },
    {
      "type": "function",
      "name": "trustedMediaEntity",
      "inputs": [
        {
          "name": "",
          "type": "uint256",
          "internalType": "uint256"
        }
      ],
      "outputs": [
        {
          "name": "role",
          "type": "uint8",
          "internalType": "enum AuthenticityVault.RoleCategory"
        },
        {
          "name": "issuer",
          "type": "address",
          "internalType": "address"
        },
        {
          "name": "orgName",
          "type": "string",
          "internalType": "string"
        },
        {
          "name": "orgUrl",
          "type": "string",
          "internalType": "string"
        }
      ],
      "stateMutability": "view"
    },
    {
      "type": "function",
      "name": "trustedMediaMember",
      "inputs": [
        {
          "name": "",
          "type": "address",
          "internalType": "address"
        }
      ],
      "outputs": [
        {
          "name": "",
          "type": "bool",
          "internalType": "bool"
        }
      ],
      "stateMutability": "view"
    },
    {
      "type": "function",
      "name": "uploadCertificateForValidation",
      "inputs": [
        {
          "name": "_fileHash",
          "type": "bytes32",
          "internalType": "bytes32"
        }
      ],
      "outputs": [
        {
          "name": "",
          "type": "bool",
          "internalType": "bool"
        }
      ],
      "stateMutability": "view"
    },
    {
      "type": "function",
      "name": "uploadFile",
      "inputs": [
        {
          "name": "_fileHash",
          "type": "bytes32",
          "internalType": "bytes32"
        },
        {
          "name": "_uploader",
          "type": "address",
          "internalType": "address"
        },
        {
          "name": "_role",
          "type": "uint8",
          "internalType": "enum AuthenticityVault.RoleCategory"
        }
      ],
      "outputs": [],
      "stateMutability": "nonpayable"
    },
    {
      "type": "function",
      "name": "validIssuersList",
      "inputs": [
        {
          "name": "",
          "type": "uint256",
          "internalType": "uint256"
        }
      ],
      "outputs": [
        {
          "name": "role",
          "type": "uint8",
          "internalType": "enum AuthenticityVault.RoleCategory"
        },
        {
          "name": "issuer",
          "type": "address",
          "internalType": "address"
        },
        {
          "name": "orgName",
          "type": "string",
          "internalType": "string"
        },
        {
          "name": "orgUrl",
          "type": "string",
          "internalType": "string"
        }
      ],
      "stateMutability": "view"
    },
    {
      "type": "function",
      "name": "validLegalAuthority",
      "inputs": [
        {
          "name": "",
          "type": "uint256",
          "internalType": "uint256"
        }
      ],
      "outputs": [
        {
          "name": "role",
          "type": "uint8",
          "internalType": "enum AuthenticityVault.RoleCategory"
        },
        {
          "name": "issuer",
          "type": "address",
          "internalType": "address"
        },
        {
          "name": "orgName",
          "type": "string",
          "internalType": "string"
        },
        {
          "name": "orgUrl",
          "type": "string",
          "internalType": "string"
        }
      ],
      "stateMutability": "view"
    },
    {
      "type": "function",
      "name": "verifyMedia",
      "inputs": [
        {
          "name": "_fileHash",
          "type": "bytes32",
          "internalType": "bytes32"
        }
      ],
      "outputs": [],
      "stateMutability": "nonpayable"
    },
    {
      "type": "function",
      "name": "viewLegalDocByAuthority",
      "inputs": [
        {
          "name": "_fileHash",
          "type": "bytes32",
          "internalType": "bytes32"
        }
      ],
      "outputs": [
        {
          "name": "",
          "type": "tuple",
          "internalType": "struct AuthenticityVault.RoleAttributes",
          "components": [
            {
              "name": "id",
              "type": "uint256",
              "internalType": "uint256"
            },
            {
              "name": "role",
              "type": "uint8",
              "internalType": "enum AuthenticityVault.RoleCategory"
            },
            {
              "name": "fileHash",
              "type": "bytes32",
              "internalType": "bytes32"
            },
            {
              "name": "timestamp",
              "type": "uint256",
              "internalType": "uint256"
            },
            {
              "name": "isVerified",
              "type": "bool",
              "internalType": "bool"
            },
            {
              "name": "uploader",
              "type": "address",
              "internalType": "address"
            },
            {
              "name": "issuer",
              "type": "address",
              "internalType": "address"
            }
          ]
        }
      ],
      "stateMutability": "view"
    },
    {
      "type": "event",
      "name": "CertificateIssuerOrLegalAuthorityRegistered",
      "inputs": [
        {
          "name": "role",
          "type": "uint8",
          "indexed": false,
          "internalType": "enum AuthenticityVault.RoleCategory"
        },
        {
          "name": "issuer",
          "type": "address",
          "indexed": true,
          "internalType": "address"
        },
        {
          "name": "orgName",
          "type": "string",
          "indexed": false,
          "internalType": "string"
        },
        {
          "name": "orgUrl",
          "type": "string",
          "indexed": false,
          "internalType": "string"
        }
      ],
      "anonymous": false
    },
    {
      "type": "event",
      "name": "FileUploaded",
      "inputs": [
        {
          "name": "fileHash",
          "type": "bytes32",
          "indexed": true,
          "internalType": "bytes32"
        },
        {
          "name": "uploader",
          "type": "address",
          "indexed": true,
          "internalType": "address"
        },
        {
          "name": "role",
          "type": "uint8",
          "indexed": false,
          "internalType": "enum AuthenticityVault.RoleCategory"
        },
        {
          "name": "timestamp",
          "type": "uint256",
          "indexed": false,
          "internalType": "uint256"
        }
      ],
      "anonymous": false
    },
    {
      "type": "event",
      "name": "FileVerified",
      "inputs": [
        {
          "name": "fileHash",
          "type": "bytes32",
          "indexed": true,
          "internalType": "bytes32"
        },
        {
          "name": "verifier",
          "type": "address",
          "indexed": true,
          "internalType": "address"
        },
        {
          "name": "timestamp",
          "type": "uint256",
          "indexed": false,
          "internalType": "uint256"
        }
      ],
      "anonymous": false
    }
  ],
  "bytecode": {
    "object": "0x6080604052348015600e575f5ffd5b503360045f6101000a81548173ffffffffffffffffffffffffffffffffffffffff021916908373ffffffffffffffffffffffffffffffffffffffff1602179055506129b88061005c5f395ff3fe608060405234801561000f575f5ffd5b506004361061012a575f3560e01c8063a0f58295116100ab578063e86fd3af1161006f578063e86fd3af14610387578063ea9008db146103b7578063eba06e08146103e7578063f851a44014610417578063fb76a354146104355761012a565b8063a0f58295146102e2578063b32ee77a14610300578063ba9be9cd1461031c578063d2d342c614610338578063d843bcd51461036b5761012a565b80634445a716116100f25780634445a71614610216578063444e3fd81461024657806344de240a146102765780635629cb0b1461029457806392c54daf146102b25761012a565b806301e647251461012e578063098597ee146101645780630b9b9346146101975780631a84247c146101ca57806325e31ec3146101fa575b5f5ffd5b61014860048036038101906101439190611bd3565b610453565b60405161015b9796959493929190611cf1565b60405180910390f35b61017e60048036038101906101799190611d88565b6104e8565b60405161018e9493929190611e23565b60405180910390f35b6101b160048036038101906101ac9190611d88565b61065a565b6040516101c19493929190611e23565b60405180910390f35b6101e460048036038101906101df9190611e9e565b6107cc565b6040516101f19190611ec9565b60405180910390f35b610214600480360381019061020f9190611ee2565b6107e9565b005b610230600480360381019061022b9190611bd3565b610b83565b60405161023d9190611ec9565b60405180910390f35b610260600480360381019061025b9190611f32565b610ba0565b60405161026d9190611f70565b60405180910390f35b61027e610bc0565b60405161028b9190611f89565b60405180910390f35b61029c610bca565b6040516102a99190611f89565b60405180910390f35b6102cc60048036038101906102c79190611e9e565b610bd5565b6040516102d99190611ec9565b60405180910390f35b6102ea610bf2565b6040516102f79190611f89565b60405180910390f35b61031a60048036038101906103159190611bd3565b610bfd565b005b61033660048036038101906103319190611fc5565b610d3a565b005b610352600480360381019061034d9190611d88565b6111f7565b6040516103629493929190611e23565b60405180910390f35b61038560048036038101906103809190612141565b611369565b005b6103a1600480360381019061039c9190611bd3565b61185d565b6040516103ae91906122b4565b60405180910390f35b6103d160048036038101906103cc9190611e9e565b611a33565b6040516103de9190611ec9565b60405180910390f35b61040160048036038101906103fc9190611bd3565b611a50565b60405161040e9190611ec9565b60405180910390f35b61041f611ac9565b60405161042c91906122cd565b60405180910390f35b61043d611aee565b60405161044a9190611f89565b60405180910390f35b6008602052805f5260405f205f91509050805f015490806001015f9054906101000a900460ff1690806002015490806003015490806004015f9054906101000a900460ff16908060040160019054906101000a900473ffffffffffffffffffffffffffffffffffffffff1690806005015f9054906101000a900473ffffffffffffffffffffffffffffffffffffffff16905087565b600781815481106104f7575f80fd5b905f5260205f2090600302015f91509050805f015f9054906101000a900460ff1690805f0160019054906101000a900473ffffffffffffffffffffffffffffffffffffffff169080600101805461054d90612313565b80601f016020809104026020016040519081016040528092919081815260200182805461057990612313565b80156105c45780601f1061059b576101008083540402835291602001916105c4565b820191905f5260205f20905b8154815290600101906020018083116105a757829003601f168201915b5050505050908060020180546105d990612313565b80601f016020809104026020016040519081016040528092919081815260200182805461060590612313565b80156106505780601f1061062757610100808354040283529160200191610650565b820191905f5260205f20905b81548152906001019060200180831161063357829003601f168201915b5050505050905084565b60058181548110610669575f80fd5b905f5260205f2090600302015f91509050805f015f9054906101000a900460ff1690805f0160019054906101000a900473ffffffffffffffffffffffffffffffffffffffff16908060010180546106bf90612313565b80601f01602080910402602001604051908101604052809291908181526020018280546106eb90612313565b80156107365780601f1061070d57610100808354040283529160200191610736565b820191905f5260205f20905b81548152906001019060200180831161071957829003601f168201915b50505050509080600201805461074b90612313565b80601f016020809104026020016040519081016040528092919081815260200182805461077790612313565b80156107c25780601f10610799576101008083540402835291602001916107c2565b820191905f5260205f20905b8154815290600101906020018083116107a557829003601f168201915b5050505050905084565b600b602052805f5260405f205f915054906101000a900460ff1681565b8060095f8281526020019081526020015f205f9054906101000a900460ff1615610848576040517f08c379a000000000000000000000000000000000000000000000000000000000815260040161083f9061238d565b60405180910390fd5b600a5f3373ffffffffffffffffffffffffffffffffffffffff1673ffffffffffffffffffffffffffffffffffffffff1681526020019081526020015f205f9054906101000a900460ff166108d1576040517f08c379a00000000000000000000000000000000000000000000000000000000081526004016108c89061241b565b60405180910390fd5b8373ffffffffffffffffffffffffffffffffffffffff163373ffffffffffffffffffffffffffffffffffffffff161461093f576040517f08c379a000000000000000000000000000000000000000000000000000000000815260040161093690612483565b60405180910390fd5b5f61094a6001611af9565b90506109566001611b05565b82600d5f8773ffffffffffffffffffffffffffffffffffffffff1673ffffffffffffffffffffffffffffffffffffffff1681526020019081526020015f205f8673ffffffffffffffffffffffffffffffffffffffff1673ffffffffffffffffffffffffffffffffffffffff1681526020019081526020015f2081905550600160095f8581526020019081526020015f205f6101000a81548160ff0219169083151502179055506040518060e0016040528082815260200160016003811115610a2157610a20611c16565b5b81526020018481526020014281526020016001151581526020018573ffffffffffffffffffffffffffffffffffffffff1681526020013373ffffffffffffffffffffffffffffffffffffffff1681525060085f8581526020019081526020015f205f820151815f01556020820151816001015f6101000a81548160ff02191690836003811115610ab457610ab3611c16565b5b021790555060408201518160020155606082015181600301556080820151816004015f6101000a81548160ff02191690831515021790555060a08201518160040160016101000a81548173ffffffffffffffffffffffffffffffffffffffff021916908373ffffffffffffffffffffffffffffffffffffffff16021790555060c0820151816005015f6101000a81548173ffffffffffffffffffffffffffffffffffffffff021916908373ffffffffffffffffffffffffffffffffffffffff1602179055509050505050505050565b6009602052805f5260405f205f915054906101000a900460ff1681565b600d602052815f5260405f20602052805f5260405f205f91509150505481565b5f805f0154905081565b6001805f0154905081565b600a602052805f5260405f205f915054906101000a900460ff1681565b6002805f0154905081565b60095f8281526020019081526020015f205f9054906101000a900460ff1615610c5b576040517f08c379a0000000000000000000000000000000000000000000000000000000008152600401610c529061238d565b60405180910390fd5b60085f8281526020019081526020015f206004015f9054906101000a900460ff1615610cbc576040517f08c379a0000000000000000000000000000000000000000000000000000000008152600401610cb3906124eb565b60405180910390fd5b600160085f8381526020019081526020015f206004015f6101000a81548160ff0219169083151502179055503373ffffffffffffffffffffffffffffffffffffffff16817f7df21ec7e92a9d481968ea9c5b6257894508eeb93271145cd2b22ba2d7153b9e42604051610d2f9190611f89565b60405180910390a350565b8260095f8281526020019081526020015f205f9054906101000a900460ff1615610d99576040517f08c379a0000000000000000000000000000000000000000000000000000000008152600401610d909061238d565b60405180910390fd5b5f5f5f90505f6003811115610db157610db0611c16565b5b846003811115610dc457610dc3611c16565b5b1480610df4575060026003811115610ddf57610dde611c16565b5b846003811115610df257610df1611c16565b5b145b15610ee85760045f9054906101000a900473ffffffffffffffffffffffffffffffffffffffff1673ffffffffffffffffffffffffffffffffffffffff163373ffffffffffffffffffffffffffffffffffffffff1614610e88576040517f08c379a0000000000000000000000000000000000000000000000000000000008152600401610e7f90612553565b60405180910390fd5b5f6003811115610e9b57610e9a611c16565b5b846003811115610eae57610ead611c16565b5b03610ecc57610ebc5f611af9565b9150610ec75f611b05565b610ee3565b610ed66002611af9565b9150610ee26002611b05565b5b610ff7565b600380811115610efb57610efa611c16565b5b846003811115610f0e57610f0d611c16565b5b03610fbb57600b5f8673ffffffffffffffffffffffffffffffffffffffff1673ffffffffffffffffffffffffffffffffffffffff1681526020019081526020015f205f9054906101000a900460ff16610f9c576040517f08c379a0000000000000000000000000000000000000000000000000000000008152600401610f93906125bb565b60405180910390fd5b610fa66003611af9565b9150610fb26003611b05565b60019050610ff6565b6040517f08c379a0000000000000000000000000000000000000000000000000000000008152600401610fed90612623565b60405180910390fd5b5b6040518060e0016040528083815260200185600381111561101b5761101a611c16565b5b815260200187815260200142815260200182151581526020018673ffffffffffffffffffffffffffffffffffffffff1681526020015f73ffffffffffffffffffffffffffffffffffffffff1681525060085f8881526020019081526020015f205f820151815f01556020820151816001015f6101000a81548160ff021916908360038111156110ad576110ac611c16565b5b021790555060408201518160020155606082015181600301556080820151816004015f6101000a81548160ff02191690831515021790555060a08201518160040160016101000a81548173ffffffffffffffffffffffffffffffffffffffff021916908373ffffffffffffffffffffffffffffffffffffffff16021790555060c0820151816005015f6101000a81548173ffffffffffffffffffffffffffffffffffffffff021916908373ffffffffffffffffffffffffffffffffffffffff160217905550905050600160095f8881526020019081526020015f205f6101000a81548160ff0219169083151502179055508473ffffffffffffffffffffffffffffffffffffffff16867fa100f8dee9de27ffc184084598041b456ae47225f0c97befb3d88e0ee5fd642886426040516111e7929190612641565b60405180910390a3505050505050565b60068181548110611206575f80fd5b905f5260205f2090600302015f91509050805f015f9054906101000a900460ff1690805f0160019054906101000a900473ffffffffffffffffffffffffffffffffffffffff169080600101805461125c90612313565b80601f016020809104026020016040519081016040528092919081815260200182805461128890612313565b80156112d35780601f106112aa576101008083540402835291602001916112d3565b820191905f5260205f20905b8154815290600101906020018083116112b657829003601f168201915b5050505050908060020180546112e890612313565b80601f016020809104026020016040519081016040528092919081815260200182805461131490612313565b801561135f5780601f106113365761010080835404028352916020019161135f565b820191905f5260205f20905b81548152906001019060200180831161134257829003601f168201915b5050505050905084565b60045f9054906101000a900473ffffffffffffffffffffffffffffffffffffffff1673ffffffffffffffffffffffffffffffffffffffff163373ffffffffffffffffffffffffffffffffffffffff16146113f8576040517f08c379a00000000000000000000000000000000000000000000000000000000081526004016113ef906126b2565b60405180910390fd5b5f604051806080016040528086600381111561141757611416611c16565b5b81526020018573ffffffffffffffffffffffffffffffffffffffff1681526020018481526020018381525090506001600381111561145857611457611c16565b5b85600381111561146b5761146a611c16565b5b0361159457600581908060018154018082558091505060019003905f5260205f2090600302015f909190919091505f820151815f015f6101000a81548160ff021916908360038111156114c1576114c0611c16565b5b02179055506020820151815f0160016101000a81548173ffffffffffffffffffffffffffffffffffffffff021916908373ffffffffffffffffffffffffffffffffffffffff16021790555060408201518160010190816115219190612870565b5060608201518160020190816115379190612870565b5050506001600a5f8673ffffffffffffffffffffffffffffffffffffffff1673ffffffffffffffffffffffffffffffffffffffff1681526020019081526020015f205f6101000a81548160ff021916908315150217905550611804565b6003808111156115a7576115a6611c16565b5b8560038111156115ba576115b9611c16565b5b036116e357600681908060018154018082558091505060019003905f5260205f2090600302015f909190919091505f820151815f015f6101000a81548160ff021916908360038111156116105761160f611c16565b5b02179055506020820151815f0160016101000a81548173ffffffffffffffffffffffffffffffffffffffff021916908373ffffffffffffffffffffffffffffffffffffffff16021790555060408201518160010190816116709190612870565b5060608201518160020190816116869190612870565b5050506001600b5f8673ffffffffffffffffffffffffffffffffffffffff1673ffffffffffffffffffffffffffffffffffffffff1681526020019081526020015f205f6101000a81548160ff021916908315150217905550611803565b600781908060018154018082558091505060019003905f5260205f2090600302015f909190919091505f820151815f015f6101000a81548160ff0219169083600381111561173457611733611c16565b5b02179055506020820151815f0160016101000a81548173ffffffffffffffffffffffffffffffffffffffff021916908373ffffffffffffffffffffffffffffffffffffffff16021790555060408201518160010190816117949190612870565b5060608201518160020190816117aa9190612870565b5050506001600c5f8673ffffffffffffffffffffffffffffffffffffffff1673ffffffffffffffffffffffffffffffffffffffff1681526020019081526020015f205f6101000a81548160ff0219169083151502179055505b5b8373ffffffffffffffffffffffffffffffffffffffff167f964e21ac54c30f00b0b40311df84274499b30ed472224d5434d697d428a72f0486858560405161184e9392919061293f565b60405180910390a25050505050565b611865611b19565b60045f9054906101000a900473ffffffffffffffffffffffffffffffffffffffff1673ffffffffffffffffffffffffffffffffffffffff163373ffffffffffffffffffffffffffffffffffffffff16146118f4576040517f08c379a00000000000000000000000000000000000000000000000000000000081526004016118eb906126b2565b60405180910390fd5b60085f8381526020019081526020015f206040518060e00160405290815f8201548152602001600182015f9054906101000a900460ff16600381111561193d5761193c611c16565b5b600381111561194f5761194e611c16565b5b81526020016002820154815260200160038201548152602001600482015f9054906101000a900460ff161515151581526020016004820160019054906101000a900473ffffffffffffffffffffffffffffffffffffffff1673ffffffffffffffffffffffffffffffffffffffff1673ffffffffffffffffffffffffffffffffffffffff168152602001600582015f9054906101000a900473ffffffffffffffffffffffffffffffffffffffff1673ffffffffffffffffffffffffffffffffffffffff1673ffffffffffffffffffffffffffffffffffffffff16815250509050919050565b600c602052805f5260405f205f915054906101000a900460ff1681565b5f60016003811115611a6557611a64611c16565b5b60085f8481526020019081526020015f206001015f9054906101000a900460ff166003811115611a9857611a97611c16565b5b148015611ac2575060085f8381526020019081526020015f206004015f9054906101000a900460ff165b9050919050565b60045f9054906101000a900473ffffffffffffffffffffffffffffffffffffffff1681565b6003805f0154905081565b5f815f01549050919050565b6001815f015f828254019250508190555050565b6040518060e001604052805f81526020015f6003811115611b3d57611b3c611c16565b5b81526020015f81526020015f81526020015f151581526020015f73ffffffffffffffffffffffffffffffffffffffff1681526020015f73ffffffffffffffffffffffffffffffffffffffff1681525090565b5f604051905090565b5f5ffd5b5f5ffd5b5f819050919050565b611bb281611ba0565b8114611bbc575f5ffd5b50565b5f81359050611bcd81611ba9565b92915050565b5f60208284031215611be857611be7611b98565b5b5f611bf584828501611bbf565b91505092915050565b5f819050919050565b611c1081611bfe565b82525050565b7f4e487b71000000000000000000000000000000000000000000000000000000005f52602160045260245ffd5b60048110611c5457611c53611c16565b5b50565b5f819050611c6482611c43565b919050565b5f611c7382611c57565b9050919050565b611c8381611c69565b82525050565b611c9281611ba0565b82525050565b5f8115159050919050565b611cac81611c98565b82525050565b5f73ffffffffffffffffffffffffffffffffffffffff82169050919050565b5f611cdb82611cb2565b9050919050565b611ceb81611cd1565b82525050565b5f60e082019050611d045f83018a611c07565b611d116020830189611c7a565b611d1e6040830188611c89565b611d2b6060830187611c07565b611d386080830186611ca3565b611d4560a0830185611ce2565b611d5260c0830184611ce2565b98975050505050505050565b611d6781611bfe565b8114611d71575f5ffd5b50565b5f81359050611d8281611d5e565b92915050565b5f60208284031215611d9d57611d9c611b98565b5b5f611daa84828501611d74565b91505092915050565b5f81519050919050565b5f82825260208201905092915050565b8281835e5f83830152505050565b5f601f19601f8301169050919050565b5f611df582611db3565b611dff8185611dbd565b9350611e0f818560208601611dcd565b611e1881611ddb565b840191505092915050565b5f608082019050611e365f830187611c7a565b611e436020830186611ce2565b8181036040830152611e558185611deb565b90508181036060830152611e698184611deb565b905095945050505050565b611e7d81611cd1565b8114611e87575f5ffd5b50565b5f81359050611e9881611e74565b92915050565b5f60208284031215611eb357611eb2611b98565b5b5f611ec084828501611e8a565b91505092915050565b5f602082019050611edc5f830184611ca3565b92915050565b5f5f5f60608486031215611ef957611ef8611b98565b5b5f611f0686828701611e8a565b9350506020611f1786828701611e8a565b9250506040611f2886828701611bbf565b9150509250925092565b5f5f60408385031215611f4857611f47611b98565b5b5f611f5585828601611e8a565b9250506020611f6685828601611e8a565b9150509250929050565b5f602082019050611f835f830184611c89565b92915050565b5f602082019050611f9c5f830184611c07565b92915050565b60048110611fae575f5ffd5b50565b5f81359050611fbf81611fa2565b92915050565b5f5f5f60608486031215611fdc57611fdb611b98565b5b5f611fe986828701611bbf565b9350506020611ffa86828701611e8a565b925050604061200b86828701611fb1565b9150509250925092565b5f5ffd5b5f5ffd5b7f4e487b71000000000000000000000000000000000000000000000000000000005f52604160045260245ffd5b61205382611ddb565b810181811067ffffffffffffffff821117156120725761207161201d565b5b80604052505050565b5f612084611b8f565b9050612090828261204a565b919050565b5f67ffffffffffffffff8211156120af576120ae61201d565b5b6120b882611ddb565b9050602081019050919050565b828183375f83830152505050565b5f6120e56120e084612095565b61207b565b90508281526020810184848401111561210157612100612019565b5b61210c8482856120c5565b509392505050565b5f82601f83011261212857612127612015565b5b81356121388482602086016120d3565b91505092915050565b5f5f5f5f6080858703121561215957612158611b98565b5b5f61216687828801611fb1565b945050602061217787828801611e8a565b935050604085013567ffffffffffffffff81111561219857612197611b9c565b5b6121a487828801612114565b925050606085013567ffffffffffffffff8111156121c5576121c4611b9c565b5b6121d187828801612114565b91505092959194509250565b6121e681611bfe565b82525050565b6121f581611c69565b82525050565b61220481611ba0565b82525050565b61221381611c98565b82525050565b61222281611cd1565b82525050565b60e082015f82015161223c5f8501826121dd565b50602082015161224f60208501826121ec565b50604082015161226260408501826121fb565b50606082015161227560608501826121dd565b506080820151612288608085018261220a565b5060a082015161229b60a0850182612219565b5060c08201516122ae60c0850182612219565b50505050565b5f60e0820190506122c75f830184612228565b92915050565b5f6020820190506122e05f830184611ce2565b92915050565b7f4e487b71000000000000000000000000000000000000000000000000000000005f52602260045260245ffd5b5f600282049050600182168061232a57607f821691505b60208210810361233d5761233c6122e6565b5b50919050565b7f46696c6520616c726561647920657869737473000000000000000000000000005f82015250565b5f612377601383611dbd565b915061238282612343565b602082019050919050565b5f6020820190508181035f8301526123a48161236b565b9050919050565b7f4f6e6c792074727573746564206973737565722063616e2069737375652063655f8201527f7274696669636174657300000000000000000000000000000000000000000000602082015250565b5f612405602a83611dbd565b9150612410826123ab565b604082019050919050565b5f6020820190508181035f830152612432816123f9565b9050919050565b7f497373756572206d69736d6174636800000000000000000000000000000000005f82015250565b5f61246d600f83611dbd565b915061247882612439565b602082019050919050565b5f6020820190508181035f83015261249a81612461565b9050919050565b7f46696c6520616c726561647920766572696669656400000000000000000000005f82015250565b5f6124d5601583611dbd565b91506124e0826124a1565b602082019050919050565b5f6020820190508181035f830152612502816124c9565b9050919050565b7f4f6e6c792061646d696e210000000000000000000000000000000000000000005f82015250565b5f61253d600b83611dbd565b915061254882612509565b602082019050919050565b5f6020820190508181035f83015261256a81612531565b9050919050565b7f556e617574686f72697a6564206c6567616c206964656e7469747900000000005f82015250565b5f6125a5601b83611dbd565b91506125b082612571565b602082019050919050565b5f6020820190508181035f8301526125d281612599565b9050919050565b7f496e76616c696420726f6c6520666f7220746869732066756e6374696f6e00005f82015250565b5f61260d601e83611dbd565b9150612618826125d9565b602082019050919050565b5f6020820190508181035f83015261263a81612601565b9050919050565b5f6040820190506126545f830185611c7a565b6126616020830184611c07565b9392505050565b7f4e6f7420636f6e7472616374206f776e657200000000000000000000000000005f82015250565b5f61269c601283611dbd565b91506126a782612668565b602082019050919050565b5f6020820190508181035f8301526126c981612690565b9050919050565b5f819050815f5260205f209050919050565b5f6020601f8301049050919050565b5f82821b905092915050565b5f6008830261272c7fffffffffffffffffffffffffffffffffffffffffffffffffffffffffffffffff826126f1565b61273686836126f1565b95508019841693508086168417925050509392505050565b5f819050919050565b5f61277161276c61276784611bfe565b61274e565b611bfe565b9050919050565b5f819050919050565b61278a83612757565b61279e61279682612778565b8484546126fd565b825550505050565b5f5f905090565b6127b56127a6565b6127c0818484612781565b505050565b5b818110156127e3576127d85f826127ad565b6001810190506127c6565b5050565b601f821115612828576127f9816126d0565b612802846126e2565b81016020851015612811578190505b61282561281d856126e2565b8301826127c5565b50505b505050565b5f82821c905092915050565b5f6128485f198460080261282d565b1980831691505092915050565b5f6128608383612839565b9150826002028217905092915050565b61287982611db3565b67ffffffffffffffff8111156128925761289161201d565b5b61289c8254612313565b6128a78282856127e7565b5f60209050601f8311600181146128d8575f84156128c6578287015190505b6128d08582612855565b865550612937565b601f1984166128e6866126d0565b5f5b8281101561290d578489015182556001820191506020850194506020810190506128e8565b8683101561292a5784890151612926601f891682612839565b8355505b6001600288020188555050505b505050505050565b5f6060820190506129525f830186611c7a565b81810360208301526129648185611deb565b905081810360408301526129788184611deb565b905094935050505056fea264697066735822122075d04295aaa42aac4f5bd2419677b38cd7dabb988777e2d3fb857fa7c90a2c7c64736f6c634300081e0033",
    "linkReferences": {}
  },
  "methodIdentifiers": {
    "admin()": "f851a440",
    "assetId()": "44de240a",
    "certificateId()": "5629cb0b",
    "fileHashDuplicationPrevent(bytes32)": "4445a716",
    "issueCertificate(address,address,bytes32)": "25e31ec3",
    "issuerToStudent(address,address)": "444e3fd8",
    "legalDocumentsId()": "fb76a354",
    "mediaRecordId()": "a0f58295",
    "records(bytes32)": "01e64725",
    "registerAsTrustedIssuerOrLegalIdentity(uint8,address,string,string)": "d843bcd5",
    "trustedIssuers(address)": "92c54daf",
    "trustedLegalIdentity(address)": "1a84247c",
    "trustedMediaEntity(uint256)": "098597ee",
    "trustedMediaMember(address)": "ea9008db",
    "uploadCertificateForValidation(bytes32)": "eba06e08",
    "uploadFile(bytes32,address,uint8)": "ba9be9cd",
    "validIssuersList(uint256)": "0b9b9346",
    "validLegalAuthority(uint256)": "d2d342c6",
    "verifyMedia(bytes32)": "b32ee77a",
    "viewLegalDocByAuthority(bytes32)": "e86fd3af"
  },
  "id": 17
}