{
  "abi": [
    {
      "type": "constructor",
      "inputs": [],
      "stateMutability": "nonpayable"
    },
    {
      "type": "function",
      "name": "admin",
      "inputs": [],
      "outputs": [
        {
          "name": "",
          "type": "address",
          "internalType": "address"
        }
      ],
      "stateMutability": "view"
    },
    {
      "type": "function",
      "name": "allRecords",
      "inputs": [
        {
          "name": "",
          "type": "uint256",
          "internalType": "uint256"
        }
      ],
      "outputs": [
        {
          "name": "",
          "type": "bytes32",
          "internalType": "bytes32"
        }
      ],
      "stateMutability": "view"
    },
    {
      "type": "function",
      "name": "assetId",
      "inputs": [],
      "outputs": [
        {
          "name": "_value",
          "type": "uint256",
          "internalType": "uint256"
        }
      ],
      "stateMutability": "view"
    },
    {
      "type": "function",
      "name": "certificateId",
      "inputs": [],
      "outputs": [
        {
          "name": "_value",
          "type": "uint256",
          "internalType": "uint256"
        }
      ],
      "stateMutability": "view"
    },
    {
      "type": "function",
      "name": "fileExistsForUpload",
      "inputs": [
        {
          "name": "",
          "type": "bytes32",
          "internalType": "bytes32"
        }
      ],
      "outputs": [
        {
          "name": "",
          "type": "bool",
          "internalType": "bool"
        }
      ],
      "stateMutability": "view"
    },
    {
      "type": "function",
      "name": "getAllFileHashes",
      "inputs": [],
      "outputs": [
        {
          "name": "",
          "type": "bytes32[]",
          "internalType": "bytes32[]"
        }
      ],
      "stateMutability": "view"
    },
    {
      "type": "function",
      "name": "getHashDetails",
      "inputs": [
        {
          "name": "_fileHash",
          "type": "bytes32",
          "internalType": "bytes32"
        }
      ],
      "outputs": [
        {
          "name": "",
          "type": "tuple[]",
          "internalType": "struct AuthenticityVault.RoleAttributes[]",
          "components": [
            {
              "name": "id",
              "type": "uint256",
              "internalType": "uint256"
            },
            {
              "name": "role",
              "type": "uint8",
              "internalType": "enum AuthenticityVault.RoleCategory"
            },
            {
              "name": "fileHash",
              "type": "bytes32",
              "internalType": "bytes32"
            },
            {
              "name": "timestamp",
              "type": "uint256",
              "internalType": "uint256"
            },
            {
              "name": "isVerified",
              "type": "bool",
              "internalType": "bool"
            },
            {
              "name": "uploader",
              "type": "address",
              "internalType": "address"
            },
            {
              "name": "issuer",
              "type": "address",
              "internalType": "address"
            }
          ]
        }
      ],
      "stateMutability": "view"
    },
    {
      "type": "function",
      "name": "getLatestHashDetails",
      "inputs": [
        {
          "name": "_fileHash",
          "type": "bytes32",
          "internalType": "bytes32"
        }
      ],
      "outputs": [
        {
          "name": "",
          "type": "tuple",
          "internalType": "struct AuthenticityVault.RoleAttributes",
          "components": [
            {
              "name": "id",
              "type": "uint256",
              "internalType": "uint256"
            },
            {
              "name": "role",
              "type": "uint8",
              "internalType": "enum AuthenticityVault.RoleCategory"
            },
            {
              "name": "fileHash",
              "type": "bytes32",
              "internalType": "bytes32"
            },
            {
              "name": "timestamp",
              "type": "uint256",
              "internalType": "uint256"
            },
            {
              "name": "isVerified",
              "type": "bool",
              "internalType": "bool"
            },
            {
              "name": "uploader",
              "type": "address",
              "internalType": "address"
            },
            {
              "name": "issuer",
              "type": "address",
              "internalType": "address"
            }
          ]
        }
      ],
      "stateMutability": "view"
    },
    {
      "type": "function",
      "name": "getRegisteredIssuers",
      "inputs": [],
      "outputs": [
        {
          "name": "",
          "type": "tuple[]",
          "internalType": "struct AuthenticityVault.ValidIssuerAndAuthority[]",
          "components": [
            {
              "name": "role",
              "type": "uint8",
              "internalType": "enum AuthenticityVault.RoleCategory"
            },
            {
              "name": "issuer",
              "type": "address",
              "internalType": "address"
            },
            {
              "name": "orgName",
              "type": "string",
              "internalType": "string"
            },
            {
              "name": "orgUrl",
              "type": "string",
              "internalType": "string"
            }
          ]
        }
      ],
      "stateMutability": "view"
    },
    {
      "type": "function",
      "name": "getRegisteredLegalAuthorities",
      "inputs": [],
      "outputs": [
        {
          "name": "",
          "type": "tuple[]",
          "internalType": "struct AuthenticityVault.ValidIssuerAndAuthority[]",
          "components": [
            {
              "name": "role",
              "type": "uint8",
              "internalType": "enum AuthenticityVault.RoleCategory"
            },
            {
              "name": "issuer",
              "type": "address",
              "internalType": "address"
            },
            {
              "name": "orgName",
              "type": "string",
              "internalType": "string"
            },
            {
              "name": "orgUrl",
              "type": "string",
              "internalType": "string"
            }
          ]
        }
      ],
      "stateMutability": "view"
    },
    {
      "type": "function",
      "name": "getRegisteredMediaEntities",
      "inputs": [],
      "outputs": [
        {
          "name": "",
          "type": "tuple[]",
          "internalType": "struct AuthenticityVault.ValidIssuerAndAuthority[]",
          "components": [
            {
              "name": "role",
              "type": "uint8",
              "internalType": "enum AuthenticityVault.RoleCategory"
            },
            {
              "name": "issuer",
              "type": "address",
              "internalType": "address"
            },
            {
              "name": "orgName",
              "type": "string",
              "internalType": "string"
            },
            {
              "name": "orgUrl",
              "type": "string",
              "internalType": "string"
            }
          ]
        }
      ],
      "stateMutability": "view"
    },
    {
      "type": "function",
      "name": "issueCertificate",
      "inputs": [
        {
          "name": "_issuer",
          "type": "address",
          "internalType": "address"
        },
        {
          "name": "_student",
          "type": "address",
          "internalType": "address"
        },
        {
          "name": "_fileHash",
          "type": "bytes32",
          "internalType": "bytes32"
        }
      ],
      "outputs": [],
      "stateMutability": "nonpayable"
    },
    {
      "type": "function",
      "name": "issuerToStudentHashes",
      "inputs": [
        {
          "name": "",
          "type": "address",
          "internalType": "address"
        },
        {
          "name": "",
          "type": "address",
          "internalType": "address"
        },
        {
          "name": "",
          "type": "uint256",
          "internalType": "uint256"
        }
      ],
      "outputs": [
        {
          "name": "",
          "type": "bytes32",
          "internalType": "bytes32"
        }
      ],
      "stateMutability": "view"
    },
    {
      "type": "function",
      "name": "legalDocumentsId",
      "inputs": [],
      "outputs": [
        {
          "name": "_value",
          "type": "uint256",
          "internalType": "uint256"
        }
      ],
      "stateMutability": "view"
    },
    {
      "type": "function",
      "name": "mediaRecordId",
      "inputs": [],
      "outputs": [
        {
          "name": "_value",
          "type": "uint256",
          "internalType": "uint256"
        }
      ],
      "stateMutability": "view"
    },
    {
      "type": "function",
      "name": "recordsByHash",
      "inputs": [
        {
          "name": "",
          "type": "bytes32",
          "internalType": "bytes32"
        },
        {
          "name": "",
          "type": "uint256",
          "internalType": "uint256"
        }
      ],
      "outputs": [
        {
          "name": "id",
          "type": "uint256",
          "internalType": "uint256"
        },
        {
          "name": "role",
          "type": "uint8",
          "internalType": "enum AuthenticityVault.RoleCategory"
        },
        {
          "name": "fileHash",
          "type": "bytes32",
          "internalType": "bytes32"
        },
        {
          "name": "timestamp",
          "type": "uint256",
          "internalType": "uint256"
        },
        {
          "name": "isVerified",
          "type": "bool",
          "internalType": "bool"
        },
        {
          "name": "uploader",
          "type": "address",
          "internalType": "address"
        },
        {
          "name": "issuer",
          "type": "address",
          "internalType": "address"
        }
      ],
      "stateMutability": "view"
    },
    {
      "type": "function",
      "name": "registerAsTrustedIssuerOrLegalIdentity",
      "inputs": [
        {
          "name": "_role",
          "type": "uint8",
          "internalType": "enum AuthenticityVault.RoleCategory"
        },
        {
          "name": "_issuer",
          "type": "address",
          "internalType": "address"
        },
        {
          "name": "orgName",
          "type": "string",
          "internalType": "string"
        },
        {
          "name": "orgUrl",
          "type": "string",
          "internalType": "string"
        }
      ],
      "outputs": [],
      "stateMutability": "nonpayable"
    },
    {
      "type": "function",
      "name": "totalRecords",
      "inputs": [],
      "outputs": [
        {
          "name": "",
          "type": "uint256",
          "internalType": "uint256"
        }
      ],
      "stateMutability": "view"
    },
    {
      "type": "function",
      "name": "trustedIssuers",
      "inputs": [
        {
          "name": "",
          "type": "address",
          "internalType": "address"
        }
      ],
      "outputs": [
        {
          "name": "",
          "type": "bool",
          "internalType": "bool"
        }
      ],
      "stateMutability": "view"
    },
    {
      "type": "function",
      "name": "trustedLegalIdentity",
      "inputs": [
        {
          "name": "",
          "type": "address",
          "internalType": "address"
        }
      ],
      "outputs": [
        {
          "name": "",
          "type": "bool",
          "internalType": "bool"
        }
      ],
      "stateMutability": "view"
    },
    {
      "type": "function",
      "name": "trustedMediaEntity",
      "inputs": [
        {
          "name": "",
          "type": "uint256",
          "internalType": "uint256"
        }
      ],
      "outputs": [
        {
          "name": "role",
          "type": "uint8",
          "internalType": "enum AuthenticityVault.RoleCategory"
        },
        {
          "name": "issuer",
          "type": "address",
          "internalType": "address"
        },
        {
          "name": "orgName",
          "type": "string",
          "internalType": "string"
        },
        {
          "name": "orgUrl",
          "type": "string",
          "internalType": "string"
        }
      ],
      "stateMutability": "view"
    },
    {
      "type": "function",
      "name": "trustedMediaMember",
      "inputs": [
        {
          "name": "",
          "type": "address",
          "internalType": "address"
        }
      ],
      "outputs": [
        {
          "name": "",
          "type": "bool",
          "internalType": "bool"
        }
      ],
      "stateMutability": "view"
    },
    {
      "type": "function",
      "name": "uploadFile",
      "inputs": [
        {
          "name": "_fileHash",
          "type": "bytes32",
          "internalType": "bytes32"
        },
        {
          "name": "_uploader",
          "type": "address",
          "internalType": "address"
        },
        {
          "name": "_role",
          "type": "uint8",
          "internalType": "enum AuthenticityVault.RoleCategory"
        }
      ],
      "outputs": [],
      "stateMutability": "nonpayable"
    },
    {
      "type": "function",
      "name": "validIssuersList",
      "inputs": [
        {
          "name": "",
          "type": "uint256",
          "internalType": "uint256"
        }
      ],
      "outputs": [
        {
          "name": "role",
          "type": "uint8",
          "internalType": "enum AuthenticityVault.RoleCategory"
        },
        {
          "name": "issuer",
          "type": "address",
          "internalType": "address"
        },
        {
          "name": "orgName",
          "type": "string",
          "internalType": "string"
        },
        {
          "name": "orgUrl",
          "type": "string",
          "internalType": "string"
        }
      ],
      "stateMutability": "view"
    },
    {
      "type": "function",
      "name": "validLegalAuthority",
      "inputs": [
        {
          "name": "",
          "type": "uint256",
          "internalType": "uint256"
        }
      ],
      "outputs": [
        {
          "name": "role",
          "type": "uint8",
          "internalType": "enum AuthenticityVault.RoleCategory"
        },
        {
          "name": "issuer",
          "type": "address",
          "internalType": "address"
        },
        {
          "name": "orgName",
          "type": "string",
          "internalType": "string"
        },
        {
          "name": "orgUrl",
          "type": "string",
          "internalType": "string"
        }
      ],
      "stateMutability": "view"
    },
    {
      "type": "function",
      "name": "validateCertificate",
      "inputs": [
        {
          "name": "_fileHash",
          "type": "bytes32",
          "internalType": "bytes32"
        }
      ],
      "outputs": [
        {
          "name": "",
          "type": "bool",
          "internalType": "bool"
        }
      ],
      "stateMutability": "nonpayable"
    },
    {
      "type": "function",
      "name": "viewMyLegalDocuments",
      "inputs": [],
      "outputs": [
        {
          "name": "",
          "type": "bytes32[]",
          "internalType": "bytes32[]"
        }
      ],
      "stateMutability": "view"
    },
    {
      "type": "event",
      "name": "CertificateIssued",
      "inputs": [
        {
          "name": "fileHash",
          "type": "bytes32",
          "indexed": false,
          "internalType": "bytes32"
        },
        {
          "name": "issuer",
          "type": "address",
          "indexed": false,
          "internalType": "address"
        },
        {
          "name": "student",
          "type": "address",
          "indexed": false,
          "internalType": "address"
        },
        {
          "name": "timestamp",
          "type": "uint256",
          "indexed": false,
          "internalType": "uint256"
        }
      ],
      "anonymous": false
    },
    {
      "type": "event",
      "name": "CertificateIssuerOrLegalAuthorityRegistered",
      "inputs": [
        {
          "name": "role",
          "type": "uint8",
          "indexed": false,
          "internalType": "enum AuthenticityVault.RoleCategory"
        },
        {
          "name": "issuer",
          "type": "address",
          "indexed": false,
          "internalType": "address"
        },
        {
          "name": "orgName",
          "type": "string",
          "indexed": false,
          "internalType": "string"
        },
        {
          "name": "orgUrl",
          "type": "string",
          "indexed": false,
          "internalType": "string"
        }
      ],
      "anonymous": false
    },
    {
      "type": "event",
      "name": "CertificateValidated",
      "inputs": [
        {
          "name": "fileHash",
          "type": "bytes32",
          "indexed": false,
          "internalType": "bytes32"
        },
        {
          "name": "isValid",
          "type": "bool",
          "indexed": false,
          "internalType": "bool"
        },
        {
          "name": "timestamp",
          "type": "uint256",
          "indexed": false,
          "internalType": "uint256"
        }
      ],
      "anonymous": false
    },
    {
      "type": "event",
      "name": "FileUploaded",
      "inputs": [
        {
          "name": "fileHash",
          "type": "bytes32",
          "indexed": false,
          "internalType": "bytes32"
        },
        {
          "name": "uploader",
          "type": "address",
          "indexed": false,
          "internalType": "address"
        },
        {
          "name": "role",
          "type": "uint8",
          "indexed": false,
          "internalType": "enum AuthenticityVault.RoleCategory"
        },
        {
          "name": "timestamp",
          "type": "uint256",
          "indexed": false,
          "internalType": "uint256"
        }
      ],
      "anonymous": false
    },
    {
      "type": "event",
      "name": "FileVerified",
      "inputs": [
        {
          "name": "fileHash",
          "type": "bytes32",
          "indexed": false,
          "internalType": "bytes32"
        },
        {
          "name": "verifier",
          "type": "address",
          "indexed": false,
          "internalType": "address"
        },
        {
          "name": "timestamp",
          "type": "uint256",
          "indexed": false,
          "internalType": "uint256"
        }
      ],
      "anonymous": false
    }
  ],
  "bytecode": {
    "object": "0x6080604052348015600e575f5ffd5b503360045f6101000a81548173ffffffffffffffffffffffffffffffffffffffff021916908373ffffffffffffffffffffffffffffffffffffffff160217905550613e3c8061005c5f395ff3fe608060405234801561000f575f5ffd5b50600436106101a7575f3560e01c806392c54daf116100f7578063d2d342c611610095578063ea9008db1161006f578063ea9008db14610526578063f1ef9d3b14610556578063f851a4401461058c578063fb76a354146105aa576101a7565b8063d2d342c6146104a7578063d843bcd5146104da578063e4f50ff9146104f6576101a7565b8063b75df51d116100d1578063b75df51d1461040d578063b80724fd1461043d578063ba9be9cd1461046d578063c2fad9c014610489576101a7565b806392c54daf146103a1578063a0f58295146103d1578063b7577339146103ef576101a7565b806344de240a116101645780636e1bf3d71161013e5780636e1bf3d7146103055780637d65725e146103235780637e257dc8146103535780638d95cd7014610383576101a7565b806344de240a146102ab5780635113e79c146102c95780635629cb0b146102e7576101a7565b8063098597ee146101ab5780630b9b9346146101de578063125f8974146102115780631758c77a1461022f5780631a84247c1461025f57806325e31ec31461028f575b5f5ffd5b6101c560048036038101906101c09190612a46565b6105c8565b6040516101d59493929190612b93565b60405180910390f35b6101f860048036038101906101f39190612a46565b61073a565b6040516102089493929190612b93565b60405180910390f35b6102196108ac565b6040516102269190612bf3565b60405180910390f35b61024960048036038101906102449190612c3f565b6108b8565b6040516102569190612df4565b60405180910390f35b61027960048036038101906102749190612e3e565b610a97565b6040516102869190612e78565b60405180910390f35b6102a960048036038101906102a49190612e91565b610ab4565b005b6102b3610ebc565b6040516102c09190612bf3565b60405180910390f35b6102d1610ec6565b6040516102de919061304b565b60405180910390f35b6102ef6110d0565b6040516102fc9190612bf3565b60405180910390f35b61030d6110db565b60405161031a919061304b565b60405180910390f35b61033d60048036038101906103389190612c3f565b6112e5565b60405161034a91906130f7565b60405180910390f35b61036d60048036038101906103689190612a46565b6114b1565b60405161037a919061311f565b60405180910390f35b61038b6114d1565b60405161039891906131e0565b60405180910390f35b6103bb60048036038101906103b69190612e3e565b611527565b6040516103c89190612e78565b60405180910390f35b6103d9611544565b6040516103e69190612bf3565b60405180910390f35b6103f761154f565b604051610404919061304b565b60405180910390f35b61042760048036038101906104229190613200565b611759565b604051610434919061311f565b60405180910390f35b61045760048036038101906104529190612c3f565b61178f565b6040516104649190612e78565b60405180910390f35b61048760048036038101906104829190613273565b6117ac565b005b610491611ca5565b60405161049e91906131e0565b60405180910390f35b6104c160048036038101906104bc9190612a46565b611faa565b6040516104d19493929190612b93565b60405180910390f35b6104f460048036038101906104ef91906133ef565b61211c565b005b610510600480360381019061050b9190612c3f565b6125fb565b60405161051d9190612e78565b60405180910390f35b610540600480360381019061053b9190612e3e565b61279c565b60405161054d9190612e78565b60405180910390f35b610570600480360381019061056b919061348b565b6127b9565b60405161058397969594939291906134c9565b60405180910390f35b610594612868565b6040516105a19190613536565b60405180910390f35b6105b261288d565b6040516105bf9190612bf3565b60405180910390f35b600d81815481106105d7575f80fd5b905f5260205f2090600302015f91509050805f015f9054906101000a900460ff1690805f0160019054906101000a900473ffffffffffffffffffffffffffffffffffffffff169080600101805461062d9061357c565b80601f01602080910402602001604051908101604052809291908181526020018280546106599061357c565b80156106a45780601f1061067b576101008083540402835291602001916106a4565b820191905f5260205f20905b81548152906001019060200180831161068757829003601f168201915b5050505050908060020180546106b99061357c565b80601f01602080910402602001604051908101604052809291908181526020018280546106e59061357c565b80156107305780601f1061070757610100808354040283529160200191610730565b820191905f5260205f20905b81548152906001019060200180831161071357829003601f168201915b5050505050905084565b600b8181548110610749575f80fd5b905f5260205f2090600302015f91509050805f015f9054906101000a900460ff1690805f0160019054906101000a900473ffffffffffffffffffffffffffffffffffffffff169080600101805461079f9061357c565b80601f01602080910402602001604051908101604052809291908181526020018280546107cb9061357c565b80156108165780601f106107ed57610100808354040283529160200191610816565b820191905f5260205f20905b8154815290600101906020018083116107f957829003601f168201915b50505050509080600201805461082b9061357c565b80601f01602080910402602001604051908101604052809291908181526020018280546108579061357c565b80156108a25780601f10610879576101008083540402835291602001916108a2565b820191905f5260205f20905b81548152906001019060200180831161088557829003601f168201915b5050505050905084565b5f600680549050905090565b60605f60055f8481526020019081526020015f208054905011610910576040517f08c379a0000000000000000000000000000000000000000000000000000000008152600401610907906135f6565b60405180910390fd5b60055f8381526020019081526020015f20805480602002602001604051908101604052809291908181526020015f905b82821015610a8c578382905f5260205f2090600602016040518060e00160405290815f8201548152602001600182015f9054906101000a900460ff16600381111561098e5761098d612a71565b5b60038111156109a05761099f612a71565b5b81526020016002820154815260200160038201548152602001600482015f9054906101000a900460ff161515151581526020016004820160019054906101000a900473ffffffffffffffffffffffffffffffffffffffff1673ffffffffffffffffffffffffffffffffffffffff1673ffffffffffffffffffffffffffffffffffffffff168152602001600582015f9054906101000a900473ffffffffffffffffffffffffffffffffffffffff1673ffffffffffffffffffffffffffffffffffffffff1673ffffffffffffffffffffffffffffffffffffffff168152505081526020019060010190610940565b505050509050919050565b6009602052805f5260405f205f915054906101000a900460ff1681565b60085f3373ffffffffffffffffffffffffffffffffffffffff1673ffffffffffffffffffffffffffffffffffffffff1681526020019081526020015f205f9054906101000a900460ff16610b3d576040517f08c379a0000000000000000000000000000000000000000000000000000000008152600401610b349061365e565b60405180910390fd5b8273ffffffffffffffffffffffffffffffffffffffff163373ffffffffffffffffffffffffffffffffffffffff1614610bab576040517f08c379a0000000000000000000000000000000000000000000000000000000008152600401610ba2906136c6565b60405180910390fd5b610bb6838383612898565b15610bf6576040517f08c379a0000000000000000000000000000000000000000000000000000000008152600401610bed9061372e565b60405180910390fd5b5f610c01600161296c565b9050610c0d6001612978565b5f6040518060e0016040528083815260200160016003811115610c3357610c32612a71565b5b81526020018481526020014281526020016001151581526020018573ffffffffffffffffffffffffffffffffffffffff1681526020018673ffffffffffffffffffffffffffffffffffffffff16815250905060055f8481526020019081526020015f2081908060018154018082558091505060019003905f5260205f2090600602015f909190919091505f820151815f01556020820151816001015f6101000a81548160ff02191690836003811115610cef57610cee612a71565b5b021790555060408201518160020155606082015181600301556080820151816004015f6101000a81548160ff02191690831515021790555060a08201518160040160016101000a81548173ffffffffffffffffffffffffffffffffffffffff021916908373ffffffffffffffffffffffffffffffffffffffff16021790555060c0820151816005015f6101000a81548173ffffffffffffffffffffffffffffffffffffffff021916908373ffffffffffffffffffffffffffffffffffffffff1602179055505050600683908060018154018082558091505060019003905f5260205f20015f9091909190915055600e5f8673ffffffffffffffffffffffffffffffffffffffff1673ffffffffffffffffffffffffffffffffffffffff1681526020019081526020015f205f8573ffffffffffffffffffffffffffffffffffffffff1673ffffffffffffffffffffffffffffffffffffffff1681526020019081526020015f2083908060018154018082558091505060019003905f5260205f20015f90919091909150557f8a9f2fdd359409354808bbba510d19f4d4facf7f77d5802fc3326db79a73029983868642604051610ead949392919061374c565b60405180910390a15050505050565b5f805f0154905081565b6060600c805480602002602001604051908101604052809291908181526020015f905b828210156110c7578382905f5260205f2090600302016040518060800160405290815f82015f9054906101000a900460ff166003811115610f2d57610f2c612a71565b5b6003811115610f3f57610f3e612a71565b5b81526020015f820160019054906101000a900473ffffffffffffffffffffffffffffffffffffffff1673ffffffffffffffffffffffffffffffffffffffff1673ffffffffffffffffffffffffffffffffffffffff168152602001600182018054610fa89061357c565b80601f0160208091040260200160405190810160405280929190818152602001828054610fd49061357c565b801561101f5780601f10610ff65761010080835404028352916020019161101f565b820191905f5260205f20905b81548152906001019060200180831161100257829003601f168201915b505050505081526020016002820180546110389061357c565b80601f01602080910402602001604051908101604052809291908181526020018280546110649061357c565b80156110af5780601f10611086576101008083540402835291602001916110af565b820191905f5260205f20905b81548152906001019060200180831161109257829003601f168201915b50505050508152505081526020019060010190610ee9565b50505050905090565b6001805f0154905081565b6060600b805480602002602001604051908101604052809291908181526020015f905b828210156112dc578382905f5260205f2090600302016040518060800160405290815f82015f9054906101000a900460ff16600381111561114257611141612a71565b5b600381111561115457611153612a71565b5b81526020015f820160019054906101000a900473ffffffffffffffffffffffffffffffffffffffff1673ffffffffffffffffffffffffffffffffffffffff1673ffffffffffffffffffffffffffffffffffffffff1681526020016001820180546111bd9061357c565b80601f01602080910402602001604051908101604052809291908181526020018280546111e99061357c565b80156112345780601f1061120b57610100808354040283529160200191611234565b820191905f5260205f20905b81548152906001019060200180831161121757829003601f168201915b5050505050815260200160028201805461124d9061357c565b80601f01602080910402602001604051908101604052809291908181526020018280546112799061357c565b80156112c45780601f1061129b576101008083540402835291602001916112c4565b820191905f5260205f20905b8154815290600101906020018083116112a757829003601f168201915b505050505081525050815260200190600101906110fe565b50505050905090565b6112ed61298c565b5f60055f8481526020019081526020015f208054905090505f8111611347576040517f08c379a000000000000000000000000000000000000000000000000000000000815260040161133e906135f6565b60405180910390fd5b60055f8481526020019081526020015f2060018261136591906137bc565b81548110611376576113756137ef565b5b905f5260205f2090600602016040518060e00160405290815f8201548152602001600182015f9054906101000a900460ff1660038111156113ba576113b9612a71565b5b60038111156113cc576113cb612a71565b5b81526020016002820154815260200160038201548152602001600482015f9054906101000a900460ff161515151581526020016004820160019054906101000a900473ffffffffffffffffffffffffffffffffffffffff1673ffffffffffffffffffffffffffffffffffffffff1673ffffffffffffffffffffffffffffffffffffffff168152602001600582015f9054906101000a900473ffffffffffffffffffffffffffffffffffffffff1673ffffffffffffffffffffffffffffffffffffffff1673ffffffffffffffffffffffffffffffffffffffff1681525050915050919050565b600681815481106114c0575f80fd5b905f5260205f20015f915090505481565b6060600680548060200260200160405190810160405280929190818152602001828054801561151d57602002820191905f5260205f20905b815481526020019060010190808311611509575b5050505050905090565b6008602052805f5260405f205f915054906101000a900460ff1681565b6002805f0154905081565b6060600d805480602002602001604051908101604052809291908181526020015f905b82821015611750578382905f5260205f2090600302016040518060800160405290815f82015f9054906101000a900460ff1660038111156115b6576115b5612a71565b5b60038111156115c8576115c7612a71565b5b81526020015f820160019054906101000a900473ffffffffffffffffffffffffffffffffffffffff1673ffffffffffffffffffffffffffffffffffffffff1673ffffffffffffffffffffffffffffffffffffffff1681526020016001820180546116319061357c565b80601f016020809104026020016040519081016040528092919081815260200182805461165d9061357c565b80156116a85780601f1061167f576101008083540402835291602001916116a8565b820191905f5260205f20905b81548152906001019060200180831161168b57829003601f168201915b505050505081526020016002820180546116c19061357c565b80601f01602080910402602001604051908101604052809291908181526020018280546116ed9061357c565b80156117385780601f1061170f57610100808354040283529160200191611738565b820191905f5260205f20905b81548152906001019060200180831161171b57829003601f168201915b50505050508152505081526020019060010190611572565b50505050905090565b600e602052825f5260405f20602052815f5260405f20818154811061177c575f80fd5b905f5260205f20015f9250925050505481565b6007602052805f5260405f205f915054906101000a900460ff1681565b8260075f8281526020019081526020015f205f9054906101000a900460ff161561180b576040517f08c379a000000000000000000000000000000000000000000000000000000000815260040161180290613866565b60405180910390fd5b5f5f5f90505f600381111561182357611822612a71565b5b84600381111561183657611835612a71565b5b148061186657506002600381111561185157611850612a71565b5b84600381111561186457611863612a71565b5b145b1561195a5760045f9054906101000a900473ffffffffffffffffffffffffffffffffffffffff1673ffffffffffffffffffffffffffffffffffffffff163373ffffffffffffffffffffffffffffffffffffffff16146118fa576040517f08c379a00000000000000000000000000000000000000000000000000000000081526004016118f1906138f4565b60405180910390fd5b5f600381111561190d5761190c612a71565b5b8460038111156119205761191f612a71565b5b0361193e5761192e5f61296c565b91506119395f612978565b611955565b611948600261296c565b91506119546002612978565b5b611a69565b60038081111561196d5761196c612a71565b5b8460038111156119805761197f612a71565b5b03611a2d5760095f8673ffffffffffffffffffffffffffffffffffffffff1673ffffffffffffffffffffffffffffffffffffffff1681526020019081526020015f205f9054906101000a900460ff16611a0e576040517f08c379a0000000000000000000000000000000000000000000000000000000008152600401611a059061395c565b60405180910390fd5b611a18600361296c565b9150611a246003612978565b60019050611a68565b6040517f08c379a0000000000000000000000000000000000000000000000000000000008152600401611a5f906139c4565b60405180910390fd5b5b5f6040518060e00160405280848152602001866003811115611a8e57611a8d612a71565b5b815260200188815260200142815260200183151581526020018773ffffffffffffffffffffffffffffffffffffffff1681526020015f73ffffffffffffffffffffffffffffffffffffffff16815250905060055f8881526020019081526020015f2081908060018154018082558091505060019003905f5260205f2090600602015f909190919091505f820151815f01556020820151816001015f6101000a81548160ff02191690836003811115611b4957611b48612a71565b5b021790555060408201518160020155606082015181600301556080820151816004015f6101000a81548160ff02191690831515021790555060a08201518160040160016101000a81548173ffffffffffffffffffffffffffffffffffffffff021916908373ffffffffffffffffffffffffffffffffffffffff16021790555060c0820151816005015f6101000a81548173ffffffffffffffffffffffffffffffffffffffff021916908373ffffffffffffffffffffffffffffffffffffffff1602179055505050600687908060018154018082558091505060019003905f5260205f20015f9091909190915055600160075f8981526020019081526020015f205f6101000a81548160ff0219169083151502179055507fa100f8dee9de27ffc184084598041b456ae47225f0c97befb3d88e0ee5fd642887878742604051611c9494939291906139e2565b60405180910390a150505050505050565b606060095f3373ffffffffffffffffffffffffffffffffffffffff1673ffffffffffffffffffffffffffffffffffffffff1681526020019081526020015f205f9054906101000a900460ff16611d30576040517f08c379a0000000000000000000000000000000000000000000000000000000008152600401611d2790613a95565b60405180910390fd5b5f60068054905090505f8167ffffffffffffffff811115611d5457611d536132cb565b5b604051908082528060200260200182016040528015611d825781602001602082028036833780820191505090505b5090505f5f90505f5f90505b83811015611efe575f60068281548110611dab57611daa6137ef565b5b905f5260205f20015490505f60055f8381526020019081526020015f2090505f5f90505b8180549050811015611eee57600380811115611dee57611ded612a71565b5b828281548110611e0157611e006137ef565b5b905f5260205f2090600602016001015f9054906101000a900460ff166003811115611e2f57611e2e612a71565b5b148015611ea957503373ffffffffffffffffffffffffffffffffffffffff16828281548110611e6157611e606137ef565b5b905f5260205f20906006020160040160019054906101000a900473ffffffffffffffffffffffffffffffffffffffff1673ffffffffffffffffffffffffffffffffffffffff16145b15611ee15782868681518110611ec257611ec16137ef565b5b6020026020010181815250508480611ed990613ab3565b955050611eee565b8080600101915050611dcf565b5050508080600101915050611d8e565b505f8167ffffffffffffffff811115611f1a57611f196132cb565b5b604051908082528060200260200182016040528015611f485781602001602082028036833780820191505090505b5090505f5f90505b82811015611f9f57838181518110611f6b57611f6a6137ef565b5b6020026020010151828281518110611f8657611f856137ef565b5b6020026020010181815250508080600101915050611f50565b508094505050505090565b600c8181548110611fb9575f80fd5b905f5260205f2090600302015f91509050805f015f9054906101000a900460ff1690805f0160019054906101000a900473ffffffffffffffffffffffffffffffffffffffff169080600101805461200f9061357c565b80601f016020809104026020016040519081016040528092919081815260200182805461203b9061357c565b80156120865780601f1061205d57610100808354040283529160200191612086565b820191905f5260205f20905b81548152906001019060200180831161206957829003601f168201915b50505050509080600201805461209b9061357c565b80601f01602080910402602001604051908101604052809291908181526020018280546120c79061357c565b80156121125780601f106120e957610100808354040283529160200191612112565b820191905f5260205f20905b8154815290600101906020018083116120f557829003601f168201915b5050505050905084565b60045f9054906101000a900473ffffffffffffffffffffffffffffffffffffffff1673ffffffffffffffffffffffffffffffffffffffff163373ffffffffffffffffffffffffffffffffffffffff16146121ab576040517f08c379a00000000000000000000000000000000000000000000000000000000081526004016121a290613b44565b60405180910390fd5b5f60405180608001604052808660038111156121ca576121c9612a71565b5b81526020018573ffffffffffffffffffffffffffffffffffffffff1681526020018481526020018381525090506001600381111561220b5761220a612a71565b5b85600381111561221e5761221d612a71565b5b0361234757600b81908060018154018082558091505060019003905f5260205f2090600302015f909190919091505f820151815f015f6101000a81548160ff0219169083600381111561227457612273612a71565b5b02179055506020820151815f0160016101000a81548173ffffffffffffffffffffffffffffffffffffffff021916908373ffffffffffffffffffffffffffffffffffffffff16021790555060408201518160010190816122d49190613d02565b5060608201518160020190816122ea9190613d02565b505050600160085f8673ffffffffffffffffffffffffffffffffffffffff1673ffffffffffffffffffffffffffffffffffffffff1681526020019081526020015f205f6101000a81548160ff0219169083151502179055506125b7565b60038081111561235a57612359612a71565b5b85600381111561236d5761236c612a71565b5b0361249657600c81908060018154018082558091505060019003905f5260205f2090600302015f909190919091505f820151815f015f6101000a81548160ff021916908360038111156123c3576123c2612a71565b5b02179055506020820151815f0160016101000a81548173ffffffffffffffffffffffffffffffffffffffff021916908373ffffffffffffffffffffffffffffffffffffffff16021790555060408201518160010190816124239190613d02565b5060608201518160020190816124399190613d02565b505050600160095f8673ffffffffffffffffffffffffffffffffffffffff1673ffffffffffffffffffffffffffffffffffffffff1681526020019081526020015f205f6101000a81548160ff0219169083151502179055506125b6565b600d81908060018154018082558091505060019003905f5260205f2090600302015f909190919091505f820151815f015f6101000a81548160ff021916908360038111156124e7576124e6612a71565b5b02179055506020820151815f0160016101000a81548173ffffffffffffffffffffffffffffffffffffffff021916908373ffffffffffffffffffffffffffffffffffffffff16021790555060408201518160010190816125479190613d02565b50606082015181600201908161255d9190613d02565b5050506001600a5f8673ffffffffffffffffffffffffffffffffffffffff1673ffffffffffffffffffffffffffffffffffffffff1681526020019081526020015f205f6101000a81548160ff0219169083151502179055505b5b7f964e21ac54c30f00b0b40311df84274499b30ed472224d5434d697d428a72f04858585856040516125ec9493929190612b93565b60405180910390a15050505050565b5f5f60055f8481526020019081526020015f2090505f81805490500361265f577f940db14a5b6bfafbb28724333180e3aeea01bd8d682365e5bd8dd7728d95be7b835f4260405161264e93929190613dd1565b60405180910390a15f915050612797565b5f5f90505b8180549050811015612756576001600381111561268457612683612a71565b5b828281548110612697576126966137ef565b5b905f5260205f2090600602016001015f9054906101000a900460ff1660038111156126c5576126c4612a71565b5b1480156126fd57508181815481106126e0576126df6137ef565b5b905f5260205f2090600602016004015f9054906101000a900460ff165b15612749577f940db14a5b6bfafbb28724333180e3aeea01bd8d682365e5bd8dd7728d95be7b8460014260405161273693929190613dd1565b60405180910390a1600192505050612797565b8080600101915050612664565b507f940db14a5b6bfafbb28724333180e3aeea01bd8d682365e5bd8dd7728d95be7b835f4260405161278a93929190613dd1565b60405180910390a15f9150505b919050565b600a602052805f5260405f205f915054906101000a900460ff1681565b6005602052815f5260405f2081815481106127d2575f80fd5b905f5260205f2090600602015f9150915050805f015490806001015f9054906101000a900460ff1690806002015490806003015490806004015f9054906101000a900460ff16908060040160019054906101000a900473ffffffffffffffffffffffffffffffffffffffff1690806005015f9054906101000a900473ffffffffffffffffffffffffffffffffffffffff16905087565b60045f9054906101000a900473ffffffffffffffffffffffffffffffffffffffff1681565b6003805f0154905081565b5f5f600e5f8673ffffffffffffffffffffffffffffffffffffffff1673ffffffffffffffffffffffffffffffffffffffff1681526020019081526020015f205f8573ffffffffffffffffffffffffffffffffffffffff1673ffffffffffffffffffffffffffffffffffffffff1681526020019081526020015f2090505f5f90505b818054905081101561295f5783828281548110612939576129386137ef565b5b905f5260205f2001540361295257600192505050612965565b8080600101915050612919565b505f9150505b9392505050565b5f815f01549050919050565b6001815f015f828254019250508190555050565b6040518060e001604052805f81526020015f60038111156129b0576129af612a71565b5b81526020015f81526020015f81526020015f151581526020015f73ffffffffffffffffffffffffffffffffffffffff1681526020015f73ffffffffffffffffffffffffffffffffffffffff1681525090565b5f604051905090565b5f5ffd5b5f5ffd5b5f819050919050565b612a2581612a13565b8114612a2f575f5ffd5b50565b5f81359050612a4081612a1c565b92915050565b5f60208284031215612a5b57612a5a612a0b565b5b5f612a6884828501612a32565b91505092915050565b7f4e487b71000000000000000000000000000000000000000000000000000000005f52602160045260245ffd5b60048110612aaf57612aae612a71565b5b50565b5f819050612abf82612a9e565b919050565b5f612ace82612ab2565b9050919050565b612ade81612ac4565b82525050565b5f73ffffffffffffffffffffffffffffffffffffffff82169050919050565b5f612b0d82612ae4565b9050919050565b612b1d81612b03565b82525050565b5f81519050919050565b5f82825260208201905092915050565b8281835e5f83830152505050565b5f601f19601f8301169050919050565b5f612b6582612b23565b612b6f8185612b2d565b9350612b7f818560208601612b3d565b612b8881612b4b565b840191505092915050565b5f608082019050612ba65f830187612ad5565b612bb36020830186612b14565b8181036040830152612bc58185612b5b565b90508181036060830152612bd98184612b5b565b905095945050505050565b612bed81612a13565b82525050565b5f602082019050612c065f830184612be4565b92915050565b5f819050919050565b612c1e81612c0c565b8114612c28575f5ffd5b50565b5f81359050612c3981612c15565b92915050565b5f60208284031215612c5457612c53612a0b565b5b5f612c6184828501612c2b565b91505092915050565b5f81519050919050565b5f82825260208201905092915050565b5f819050602082019050919050565b612c9c81612a13565b82525050565b612cab81612ac4565b82525050565b612cba81612c0c565b82525050565b5f8115159050919050565b612cd481612cc0565b82525050565b612ce381612b03565b82525050565b60e082015f820151612cfd5f850182612c93565b506020820151612d106020850182612ca2565b506040820151612d236040850182612cb1565b506060820151612d366060850182612c93565b506080820151612d496080850182612ccb565b5060a0820151612d5c60a0850182612cda565b5060c0820151612d6f60c0850182612cda565b50505050565b5f612d808383612ce9565b60e08301905092915050565b5f602082019050919050565b5f612da282612c6a565b612dac8185612c74565b9350612db783612c84565b805f5b83811015612de7578151612dce8882612d75565b9750612dd983612d8c565b925050600181019050612dba565b5085935050505092915050565b5f6020820190508181035f830152612e0c8184612d98565b905092915050565b612e1d81612b03565b8114612e27575f5ffd5b50565b5f81359050612e3881612e14565b92915050565b5f60208284031215612e5357612e52612a0b565b5b5f612e6084828501612e2a565b91505092915050565b612e7281612cc0565b82525050565b5f602082019050612e8b5f830184612e69565b92915050565b5f5f5f60608486031215612ea857612ea7612a0b565b5b5f612eb586828701612e2a565b9350506020612ec686828701612e2a565b9250506040612ed786828701612c2b565b9150509250925092565b5f81519050919050565b5f82825260208201905092915050565b5f819050602082019050919050565b5f82825260208201905092915050565b5f612f2482612b23565b612f2e8185612f0a565b9350612f3e818560208601612b3d565b612f4781612b4b565b840191505092915050565b5f608083015f830151612f675f860182612ca2565b506020830151612f7a6020860182612cda565b5060408301518482036040860152612f928282612f1a565b91505060608301518482036060860152612fac8282612f1a565b9150508091505092915050565b5f612fc48383612f52565b905092915050565b5f602082019050919050565b5f612fe282612ee1565b612fec8185612eeb565b935083602082028501612ffe85612efb565b805f5b85811015613039578484038952815161301a8582612fb9565b945061302583612fcc565b925060208a01995050600181019050613001565b50829750879550505050505092915050565b5f6020820190508181035f8301526130638184612fd8565b905092915050565b60e082015f82015161307f5f850182612c93565b5060208201516130926020850182612ca2565b5060408201516130a56040850182612cb1565b5060608201516130b86060850182612c93565b5060808201516130cb6080850182612ccb565b5060a08201516130de60a0850182612cda565b5060c08201516130f160c0850182612cda565b50505050565b5f60e08201905061310a5f83018461306b565b92915050565b61311981612c0c565b82525050565b5f6020820190506131325f830184613110565b92915050565b5f81519050919050565b5f82825260208201905092915050565b5f819050602082019050919050565b5f61316c8383612cb1565b60208301905092915050565b5f602082019050919050565b5f61318e82613138565b6131988185613142565b93506131a383613152565b805f5b838110156131d35781516131ba8882613161565b97506131c583613178565b9250506001810190506131a6565b5085935050505092915050565b5f6020820190508181035f8301526131f88184613184565b905092915050565b5f5f5f6060848603121561321757613216612a0b565b5b5f61322486828701612e2a565b935050602061323586828701612e2a565b925050604061324686828701612a32565b9150509250925092565b6004811061325c575f5ffd5b50565b5f8135905061326d81613250565b92915050565b5f5f5f6060848603121561328a57613289612a0b565b5b5f61329786828701612c2b565b93505060206132a886828701612e2a565b92505060406132b98682870161325f565b9150509250925092565b5f5ffd5b5f5ffd5b7f4e487b71000000000000000000000000000000000000000000000000000000005f52604160045260245ffd5b61330182612b4b565b810181811067ffffffffffffffff821117156133205761331f6132cb565b5b80604052505050565b5f613332612a02565b905061333e82826132f8565b919050565b5f67ffffffffffffffff82111561335d5761335c6132cb565b5b61336682612b4b565b9050602081019050919050565b828183375f83830152505050565b5f61339361338e84613343565b613329565b9050828152602081018484840111156133af576133ae6132c7565b5b6133ba848285613373565b509392505050565b5f82601f8301126133d6576133d56132c3565b5b81356133e6848260208601613381565b91505092915050565b5f5f5f5f6080858703121561340757613406612a0b565b5b5f6134148782880161325f565b945050602061342587828801612e2a565b935050604085013567ffffffffffffffff81111561344657613445612a0f565b5b613452878288016133c2565b925050606085013567ffffffffffffffff81111561347357613472612a0f565b5b61347f878288016133c2565b91505092959194509250565b5f5f604083850312156134a1576134a0612a0b565b5b5f6134ae85828601612c2b565b92505060206134bf85828601612a32565b9150509250929050565b5f60e0820190506134dc5f83018a612be4565b6134e96020830189612ad5565b6134f66040830188613110565b6135036060830187612be4565b6135106080830186612e69565b61351d60a0830185612b14565b61352a60c0830184612b14565b98975050505050505050565b5f6020820190506135495f830184612b14565b92915050565b7f4e487b71000000000000000000000000000000000000000000000000000000005f52602260045260245ffd5b5f600282049050600182168061359357607f821691505b6020821081036135a6576135a561354f565b5b50919050565b7f48617368206e6f7420666f756e640000000000000000000000000000000000005f82015250565b5f6135e0600e83612b2d565b91506135eb826135ac565b602082019050919050565b5f6020820190508181035f83015261360d816135d4565b9050919050565b7f4f6e6c79207472757374656420697373756572000000000000000000000000005f82015250565b5f613648601383612b2d565b915061365382613614565b602082019050919050565b5f6020820190508181035f8301526136758161363c565b9050919050565b7f497373756572206d69736d6174636800000000000000000000000000000000005f82015250565b5f6136b0600f83612b2d565b91506136bb8261367c565b602082019050919050565b5f6020820190508181035f8301526136dd816136a4565b9050919050565b7f436572746966696361746520616c7265616479206973737565642100000000005f82015250565b5f613718601b83612b2d565b9150613723826136e4565b602082019050919050565b5f6020820190508181035f8301526137458161370c565b9050919050565b5f60808201905061375f5f830187613110565b61376c6020830186612b14565b6137796040830185612b14565b6137866060830184612be4565b95945050505050565b7f4e487b71000000000000000000000000000000000000000000000000000000005f52601160045260245ffd5b5f6137c682612a13565b91506137d183612a13565b92508282039050818111156137e9576137e861378f565b5b92915050565b7f4e487b71000000000000000000000000000000000000000000000000000000005f52603260045260245ffd5b7f46696c6520616c726561647920657869737473202875706c6f616473290000005f82015250565b5f613850601d83612b2d565b915061385b8261381c565b602082019050919050565b5f6020820190508181035f83015261387d81613844565b9050919050565b7f4f6e6c792061646d696e2063616e2075706c6f6164206173736574732f6d65645f8201527f6961000000000000000000000000000000000000000000000000000000000000602082015250565b5f6138de602283612b2d565b91506138e982613884565b604082019050919050565b5f6020820190508181035f83015261390b816138d2565b9050919050565b7f556e617574686f72697a6564206c6567616c2075706c6f6164657200000000005f82015250565b5f613946601b83612b2d565b915061395182613912565b602082019050919050565b5f6020820190508181035f8301526139738161393a565b9050919050565b7f496e76616c696420726f6c6520666f722075706c6f61640000000000000000005f82015250565b5f6139ae601783612b2d565b91506139b98261397a565b602082019050919050565b5f6020820190508181035f8301526139db816139a2565b9050919050565b5f6080820190506139f55f830187613110565b613a026020830186612b14565b613a0f6040830185612ad5565b613a1c6060830184612be4565b95945050505050565b7f4f6e6c792072656769737465726564206c6567616c20617574686f72697469655f8201527f732063616e2076696577206c6567616c20646f63756d656e7473000000000000602082015250565b5f613a7f603a83612b2d565b9150613a8a82613a25565b604082019050919050565b5f6020820190508181035f830152613aac81613a73565b9050919050565b5f613abd82612a13565b91507fffffffffffffffffffffffffffffffffffffffffffffffffffffffffffffffff8203613aef57613aee61378f565b5b600182019050919050565b7f4e6f7420636f6e7472616374206f776e657200000000000000000000000000005f82015250565b5f613b2e601283612b2d565b9150613b3982613afa565b602082019050919050565b5f6020820190508181035f830152613b5b81613b22565b9050919050565b5f819050815f5260205f209050919050565b5f6020601f8301049050919050565b5f82821b905092915050565b5f60088302613bbe7fffffffffffffffffffffffffffffffffffffffffffffffffffffffffffffffff82613b83565b613bc88683613b83565b95508019841693508086168417925050509392505050565b5f819050919050565b5f613c03613bfe613bf984612a13565b613be0565b612a13565b9050919050565b5f819050919050565b613c1c83613be9565b613c30613c2882613c0a565b848454613b8f565b825550505050565b5f5f905090565b613c47613c38565b613c52818484613c13565b505050565b5b81811015613c7557613c6a5f82613c3f565b600181019050613c58565b5050565b601f821115613cba57613c8b81613b62565b613c9484613b74565b81016020851015613ca3578190505b613cb7613caf85613b74565b830182613c57565b50505b505050565b5f82821c905092915050565b5f613cda5f1984600802613cbf565b1980831691505092915050565b5f613cf28383613ccb565b9150826002028217905092915050565b613d0b82612b23565b67ffffffffffffffff811115613d2457613d236132cb565b5b613d2e825461357c565b613d39828285613c79565b5f60209050601f831160018114613d6a575f8415613d58578287015190505b613d628582613ce7565b865550613dc9565b601f198416613d7886613b62565b5f5b82811015613d9f57848901518255600182019150602085019450602081019050613d7a565b86831015613dbc5784890151613db8601f891682613ccb565b8355505b6001600288020188555050505b505050505050565b5f606082019050613de45f830186613110565b613df16020830185612e69565b613dfe6040830184612be4565b94935050505056fea2646970667358221220508ac48faa49af663bc821e9e6516f60dcd5f779188463fd4dba3e408eb2db6564736f6c634300081e0033",
    "linkReferences": {}
  },
  "methodIdentifiers": {
    "admin()": "f851a440",
    "allRecords(uint256)": "7e257dc8",
    "assetId()": "44de240a",
    "certificateId()": "5629cb0b",
    "fileExistsForUpload(bytes32)": "b80724fd",
    "getAllFileHashes()": "8d95cd70",
    "getHashDetails(bytes32)": "1758c77a",
    "getLatestHashDetails(bytes32)": "7d65725e",
    "getRegisteredIssuers()": "6e1bf3d7",
    "getRegisteredLegalAuthorities()": "5113e79c",
    "getRegisteredMediaEntities()": "b7577339",
    "issueCertificate(address,address,bytes32)": "25e31ec3",
    "issuerToStudentHashes(address,address,uint256)": "b75df51d",
    "legalDocumentsId()": "fb76a354",
    "mediaRecordId()": "a0f58295",
    "recordsByHash(bytes32,uint256)": "f1ef9d3b",
    "registerAsTrustedIssuerOrLegalIdentity(uint8,address,string,string)": "d843bcd5",
    "totalRecords()": "125f8974",
    "trustedIssuers(address)": "92c54daf",
    "trustedLegalIdentity(address)": "1a84247c",
    "trustedMediaEntity(uint256)": "098597ee",
    "trustedMediaMember(address)": "ea9008db",
    "uploadFile(bytes32,address,uint8)": "ba9be9cd",
    "validIssuersList(uint256)": "0b9b9346",
    "validLegalAuthority(uint256)": "d2d342c6",
    "validateCertificate(bytes32)": "e4f50ff9",
    "viewMyLegalDocuments()": "c2fad9c0"
  },
  "id": 17
}